:020000040000fa
:080000000002040000000000f2
:020000040000fa
:100400000f8020000e7f22000e01880000000000f7
:100410000c000700c03b2000010020001100070075
:10042000000020000000e000020032000000020096
:10043000000000002c030200000000000040da0071
:100440000000fe004440a900000020000000e00081
:100450000300320000002000a00188004440a800f2
:100460000000060091018800800078000000eb0089
:1004700015003700e280400032a0b4009101ba00bc
:10048000e280400032a0b4009102ba00e280400055
:1004900032a0b4000002eb00472bde00f507b200eb
:1004a000602ce10004003a000059eb008301e900f0
:1004b000fdff3e00040037006128e100010032002a
:1004c0000082eb00040007001101ba000200e00006
:1004d000e8ff3a00000006003159ba008301e90044
:1004e0000c0032002159ba008301e90008003200f3
:1004f0000400e00003003a00e280400032a0b400b3
:10050000f5ff370011d9ba008301e900faff3a007c
:100510008100e800e180400032a0b4000000060045
:080520000040da000000fe00bb
:020000040000fa
:020000040001f9
:0457f800bf78000076
:020000040000fa
:020000040001f9
:0457fc007f3f0000eb
:020000040000fa
:1000080090020000900200009002000090020000a0
:100018009002000090020000900200009002000090
:100028009002000090020000900200009002000080
:100038009002000090020000900200009002000070
:020000040000fa
:020000040000fa
:100528000400fa00f0ff2f0001002000008fbe0039
:100538000080eb008080eb001e0f40005e974800b3
:100548000080eb008080eb00be0f1000ae8f18001b
:10055800f7ff3a000080fa00000006000400fa00e5
:10056800000f78000000eb00201688000000eb0068
:10057800601688000000eb00a01688001e007800b6
:10058800100798001e009000e30f50002000320072
:100598001e009000e30f500007003e001e00900070
:1005a800e10f5000140032001e009000e10f5000cf
:1005b80014003e000d0037001e009000e50f5000ab
:1005c800190032001e009000e50f5000130039009a
:1005d8001e009000e60f5000160032001e0090002a
:1005e800e70f5000160032001700370000402000c7
:1005f8002016880014003700000820002016880004
:100608001100370000102000601688000e00370027
:1006180000202000601688000b0037000020200012
:1006280020168800080037000010200020168800d7
:10063800050037000000210060168800020037001e
:1006480000042000a01688000080fa0000000600c0
:100658001600fa00600798007107980000782000db
:10066800500798000030210040079800000420003f
:10067800300798000000eb002007980010002000c9
:10068800100798000000eb00000f78000000eb0056
:10069800200f98005e0090000000e00002003a0081
:1006a80010002000200f98002e08900000168800e7
:1006b8000000eb00100f98004e0090000000e000d2
:1006c80002003a0010002000100f98001e08900049
:1006d800401688000000eb00000f98003e009000d4
:1006e8000000e00002003a0010002000000f98000f
:1006f8000e089000801688000080eb0060198800c2
:100708002e00900095ff07001e0090000000e000fa
:10071800040032002e0090000000e8002007980036
:10072800030037002e0090000000e9002007980021
:100738002e009000e70f500004003a000000eb0084
:100748001007980010002000000f78002e0090007d
:100758000000e00004003a00100020001007980094
:1007680020002000000f78006dff0700e4ff37002d
:020000040000fa
:04077800000000007d
:00000001FF
