:020000040000FA
:0600000026EF01F01200E2
:020006000000F8
:08000800D9CFE6FFE1CFD9FFDB
:10001000040EE126DE6ADD6A020EDB6A030EDB6A8D
:10002000DE6ADD6ADECF14F0DDCF15F0D890155012
:1000300004E6100E145C270E15580AE2020EDB2AA5
:10004000030E01E3DB2ADF2A010EECE3DB2AEAD709
:10005000020EDBCF14F0030EDBCF15F014C0F3FF5C
:1000600015C0F4FF040EE15C02E2E16AE552E16EC4
:10007000E552E7CFD9FF1200D9CFE6FFE1CFD9FF94
:10008000080EE126010EDE6EDD6A020EDB6E030E47
:10009000DB6AF36E040EF3CFDBFF050EDB6A060EA0
:1000A000DB6A070EDB6ADECF16F0DDCF17F0020E3B
:1000B000DBCF08F0030EDBCF09F0040EDBCF0DF031
:1000C000050EDBCF0EF0E9EC00F016500624146E9E
:1000D00017500720156E060E14C0DBFF070E15C063
:1000E000DBFF060EDBCF14F0070EDBCF15F014C0DC
:1000F000F3FF15C0F4FF080EE15C02E2E16AE5528D
:10010000E16EE552E7CFD9FF1200D9CFE6FFE1CF8C
:10011000D9FF020EE126DE6ADD6A936A816A0F0E5C
:10012000816E72DF816A70DFA7DFF3CFDEFFF4CF6D
:04013000DDFFF5D723
:0C013400060EF66E000EF76E000EF86E60
:100140000F010900F550056F0900F550066F03E136
:10015000056701D03DD00900F550006F0900F5504A
:10016000016F0900F550026F09000900F550E96EB2
:100170000900F550EA6E090009000900F550036F07
:100180000900F550046F09000900F6CF07FFF7CF0B
:1001900008FFF8CF09FF00CFF6FF01CFF7FF02CF2E
:1001A000F8FF0F01035302E1045307E00900F55083
:1001B000EE6E0307F8E20407F9D707CFF6FF08CF82
:1001C000F7FF09CFF8FF0F010507000E065BBFD749
:0201D00012001B
:0E01D20009C013F008C012F008500D02F4CF5F
:1001E00007F0F3CF06F009500E02F4CF09F0F3CF79
:1001F00008F00D02F3500726F4500822E86A09229D
:1002000012500E02F3500726F4500822E86A092221
:100210000EAE0FEF01F01250085E1350095A13AEE4
:0C022000000C0D50085E0E50095A000C36
:04022C00380EF36E27
:1002300000EE00F00F0E01D81200EA6002D0EE6A64
:0C024000FCD7F350E9601200EE6AFCD716
:04024C001EEE00F0B2
:100250002EEE00F0F86A019C9AEC00F034EC01F00C
:0802600085EC00F0FBD7120051
:02026800120082
:020000040030CA
:0100010028D6
:00000001FF
