:0A0000008031022888018731632F48
:100EC60020008731662FF801F90121008D016B2F73
:100ED6000F3020008D008731A727873120008D0134
:100EE6008731A72787318731D32787317708F901DB
:100EF600F9077608F801F8076B2F6B2F8031022867
:100F0600F401F501862F701C892F8A2F8E2F720807
:100F1600F4077308F53D0130F235F30D890B8F2F79
:100F26000130F136F00C890B942F71087004031D03
:100F36009D2F9E2F862F9F2F7508F101F1077408AC
:100F4600F001F007A62F0800F201F301F001F1010C
:100F5600F201F3017308803AFF00A7307F02031DF8
:100F6600B62F10307202031CB92FBA2FBC2FD22F06
:100F7600D22F0130F0070030F13D0130F20700308A
:100F8600F33D7308803AFF00A7307F02031DCD2F83
:100F960010307202031CD02FD12FBC2FD22F080085
:100FA60001302000A0000030A1000230A200003075
:100FB600A3000330A4000030A500A601A701230862
:100FC600F101F1072208F001F0072508F301F30704
:100FD6002408F201F2078731832787312000200891
:100FE6007007A6002108713DA7002708F701F7073B
:0A0FF6002608F601F607FF2F080099
:00000001FF
