:020000040000fa
:080000000002040000000000f2
:020000040000fa
:100400000f8020000e7f22000e01880000000000f7
:100410000c0007002034200001002000110007001c
:10042000000020000000e000020032000000020096
:1004300000000000b2020200000000000040da00ec
:100440000000fe004440a900000020000000e00081
:100450000300320000002000a00188004440a800f2
:100460000000060091018800800078000000eb0089
:1004700015003700e280400032a0b4009101ba00bc
:10048000e280400032a0b4009102ba00e280400055
:1004900032a0b4000002eb00472bde00f507b200eb
:1004a000602ce10004003a000059eb008301e900f0
:1004b000fdff3e00040037006128e100010032002a
:1004c0000082eb00040007001101ba000200e00006
:1004d000e8ff3a00000006003159ba008301e90044
:1004e0000c0032002159ba008301e90008003200f3
:1004f0000400e00003003a00e280400032a0b400b3
:10050000f5ff370011d9ba008301e900faff3a007c
:100510008100e800e180400032a0b4000000060045
:080520000040da000000fe00bb
:020000040000fa
:020000040001f9
:0457f800bf78000076
:020000040000fa
:020000040001f9
:0457fc007f3f0000eb
:020000040000fa
:1000080090020000900200009002000090020000a0
:100018009002000090020000900200009002000090
:100028009002000090020000900200009002000080
:100038009002000090020000900200009002000070
:020000040000fa
:020000040000fa
:100528000400fa00f0ff2f0001002000008fbe0039
:100538000080eb008080eb001e0f40005e974800b3
:100548000080eb008080eb00be0f1000ae8f18001b
:10055800f7ff3a000080fa00000006001600fa00d3
:10056800300798004107980000782000200798007d
:10057800003021001007980000042000000f7800c8
:100588000000eb00200f98002e0090000000e00013
:1005980002003a0010002000200f98002e0890005a
:1005a800001688000000eb00100f98001e00900055
:1005b8000000e00002003a0010002000100f980030
:1005c8001e089000401688000000eb00000f9800fd
:1005d8001e00e00002003a0010002000000f980002
:1005e8000e089000801688000080eb0060198800d3
:1005f8000000eb00700798002e0090000000e0005b
:1006080002003a0010002000700798007e00900059
:10061800201688000000eb00600798001e0090007c
:100628000000e00002003a00100020006007980077
:100638006e009000601688000000eb0050079800dc
:100648001e00e00002003a00100020005007980049
:100658005e009000a0168800b1ff07002e009000f1
:10066800201688001e009000601688001e00780082
:0c067800a0168800aaff0700ddff370075
:020000040000fa
:040684000000000072
:00000001FF
